{
  "contractName": "Certificate",
  "abi": [
    {
      "inputs": [
        {
          "internalType": "string",
          "name": "name",
          "type": "string"
        },
        {
          "internalType": "address",
          "name": "account",
          "type": "address"
        },
        {
          "internalType": "string",
          "name": "schoolName",
          "type": "string"
        },
        {
          "internalType": "string",
          "name": "major",
          "type": "string"
        },
        {
          "internalType": "string",
          "name": "minor",
          "type": "string"
        },
        {
          "internalType": "uint8",
          "name": "enrollYear",
          "type": "uint8"
        }
      ],
      "payable": false,
      "stateMutability": "nonpayable",
      "type": "constructor"
    },
    {
      "anonymous": false,
      "inputs": [
        {
          "indexed": false,
          "internalType": "enum Certificate.DoneCode",
          "name": "eventCode",
          "type": "uint8"
        },
        {
          "indexed": false,
          "internalType": "string",
          "name": "message",
          "type": "string"
        }
      ],
      "name": "done",
      "type": "event"
    },
    {
      "constant": true,
      "inputs": [],
      "name": "educationStatus",
      "outputs": [
        {
          "internalType": "enum Certificate.EducationStatus",
          "name": "",
          "type": "uint8"
        }
      ],
      "payable": false,
      "stateMutability": "view",
      "type": "function"
    },
    {
      "constant": true,
      "inputs": [],
      "name": "profile",
      "outputs": [
        {
          "internalType": "string",
          "name": "name",
          "type": "string"
        },
        {
          "internalType": "address",
          "name": "account",
          "type": "address"
        },
        {
          "internalType": "string",
          "name": "schoolName",
          "type": "string"
        },
        {
          "internalType": "string",
          "name": "major",
          "type": "string"
        },
        {
          "internalType": "string",
          "name": "minor",
          "type": "string"
        },
        {
          "internalType": "uint8",
          "name": "enrollYear",
          "type": "uint8"
        },
        {
          "internalType": "enum Certificate.EducationStatus",
          "name": "educationStatus",
          "type": "uint8"
        }
      ],
      "payable": false,
      "stateMutability": "view",
      "type": "function"
    },
    {
      "constant": true,
      "inputs": [],
      "name": "getCourseCount",
      "outputs": [
        {
          "internalType": "uint256",
          "name": "",
          "type": "uint256"
        }
      ],
      "payable": false,
      "stateMutability": "view",
      "type": "function"
    },
    {
      "constant": true,
      "inputs": [
        {
          "internalType": "uint256",
          "name": "index",
          "type": "uint256"
        }
      ],
      "name": "getCourse",
      "outputs": [
        {
          "internalType": "string",
          "name": "",
          "type": "string"
        },
        {
          "internalType": "string",
          "name": "",
          "type": "string"
        },
        {
          "internalType": "string",
          "name": "",
          "type": "string"
        },
        {
          "internalType": "uint8",
          "name": "",
          "type": "uint8"
        }
      ],
      "payable": false,
      "stateMutability": "view",
      "type": "function"
    },
    {
      "constant": false,
      "inputs": [
        {
          "internalType": "string",
          "name": "name",
          "type": "string"
        },
        {
          "internalType": "string",
          "name": "content",
          "type": "string"
        },
        {
          "internalType": "string",
          "name": "comment",
          "type": "string"
        },
        {
          "internalType": "uint8",
          "name": "grade",
          "type": "uint8"
        }
      ],
      "name": "setCourse",
      "outputs": [],
      "payable": false,
      "stateMutability": "nonpayable",
      "type": "function"
    },
    {
      "constant": false,
      "inputs": [],
      "name": "setCertificate",
      "outputs": [],
      "payable": false,
      "stateMutability": "nonpayable",
      "type": "function"
    },
    {
      "constant": false,
      "inputs": [
        {
          "internalType": "string",
          "name": "newSchool",
          "type": "string"
        }
      ],
      "name": "setSchool",
      "outputs": [],
      "payable": false,
      "stateMutability": "nonpayable",
      "type": "function"
    },
    {
      "constant": false,
      "inputs": [
        {
          "internalType": "string",
          "name": "newMajor",
          "type": "string"
        }
      ],
      "name": "setMajor",
      "outputs": [],
      "payable": false,
      "stateMutability": "nonpayable",
      "type": "function"
    },
    {
      "constant": false,
      "inputs": [
        {
          "internalType": "string",
          "name": "newMinor",
          "type": "string"
        }
      ],
      "name": "setMinor",
      "outputs": [],
      "payable": false,
      "stateMutability": "nonpayable",
      "type": "function"
    },
    {
      "constant": false,
      "inputs": [
        {
          "internalType": "string",
          "name": "newName",
          "type": "string"
        }
      ],
      "name": "setName",
      "outputs": [],
      "payable": false,
      "stateMutability": "nonpayable",
      "type": "function"
    },
    {
      "constant": false,
      "inputs": [
        {
          "internalType": "enum Certificate.EducationStatus",
          "name": "newEducationStatus",
          "type": "uint8"
        }
      ],
      "name": "setEducationStatus",
      "outputs": [],
      "payable": false,
      "stateMutability": "nonpayable",
      "type": "function"
    }
  ],
  "bytecode": "0x60806040523480156200001157600080fd5b50604051620021aa380380620021aa833981810160405260c08110156200003757600080fd5b81019080805160405193929190846401000000008211156200005857600080fd5b838201915060208201858111156200006f57600080fd5b82518660018202830111640100000000821117156200008d57600080fd5b8083526020830192505050908051906020019080838360005b83811015620000c3578082015181840152602081019050620000a6565b50505050905090810190601f168015620000f15780820380516001836020036101000a031916815260200191505b5060405260200180519060200190929190805160405193929190846401000000008211156200011f57600080fd5b838201915060208201858111156200013657600080fd5b82518660018202830111640100000000821117156200015457600080fd5b8083526020830192505050908051906020019080838360005b838110156200018a5780820151818401526020810190506200016d565b50505050905090810190601f168015620001b85780820380516001836020036101000a031916815260200191505b5060405260200180516040519392919084640100000000821115620001dc57600080fd5b83820191506020820185811115620001f357600080fd5b82518660018202830111640100000000821117156200021157600080fd5b8083526020830192505050908051906020019080838360005b83811015620002475780820151818401526020810190506200022a565b50505050905090810190601f168015620002755780820380516001836020036101000a031916815260200191505b50604052602001805160405193929190846401000000008211156200029957600080fd5b83820191506020820185811115620002b057600080fd5b8251866001820283011164010000000082111715620002ce57600080fd5b8083526020830192505050908051906020019080838360005b8381101562000304578082015181840152602081019050620002e7565b50505050905090810190601f168015620003325780820380516001836020036101000a031916815260200191505b5060405260200180519060200190929190505050336000806101000a81548173ffffffffffffffffffffffffffffffffffffffff021916908373ffffffffffffffffffffffffffffffffffffffff1602179055506040518060e001604052808781526020018673ffffffffffffffffffffffffffffffffffffffff1681526020018581526020018481526020018381526020018260ff16815260200160016002811115620003dc57fe5b81525060016000820151816000019080519060200190620003ff929190620004fe565b5060208201518160010160006101000a81548173ffffffffffffffffffffffffffffffffffffffff021916908373ffffffffffffffffffffffffffffffffffffffff160217905550604082015181600201908051906020019062000465929190620004fe565b50606082015181600301908051906020019062000484929190620004fe565b506080820151816004019080519060200190620004a3929190620004fe565b5060a08201518160050160006101000a81548160ff021916908360ff16021790555060c08201518160050160016101000a81548160ff02191690836002811115620004ea57fe5b0217905550905050505050505050620005ad565b828054600181600116156101000203166002900490600052602060002090601f016020900481019282601f106200054157805160ff191683800117855562000572565b8280016001018555821562000572579182015b828111156200057157825182559160200191906001019062000554565b5b50905062000581919062000585565b5090565b620005aa91905b80821115620005a65760008160009055506001016200058c565b5090565b90565b611bed80620005bd6000396000f3fe608060405234801561001057600080fd5b50600436106100a95760003560e01c806396cfda061161007157806396cfda0614610548578063ab60636c14610566578063ae38c43e14610782578063c47f00271461083d578063d995dac3146108f8578063e3f983c014610902576100a9565b8063051f96b0146100ae5780630b91e28d146100da57806331b546b1146102665780633981b8da1461045c5780638f7b45d01461048d575b600080fd5b6100b66109bd565b604051808260028111156100c657fe5b60ff16815260200191505060405180910390f35b610106600480360360208110156100f057600080fd5b81019080803590602001909291905050506109d0565b604051808060200180602001806020018560ff1660ff168152602001848103845288818151815260200191508051906020019080838360005b8381101561015a57808201518184015260208101905061013f565b50505050905090810190601f1680156101875780820380516001836020036101000a031916815260200191505b50848103835287818151815260200191508051906020019080838360005b838110156101c05780820151818401526020810190506101a5565b50505050905090810190601f1680156101ed5780820380516001836020036101000a031916815260200191505b50848103825286818151815260200191508051906020019080838360005b8381101561022657808201518184015260208101905061020b565b50505050905090810190601f1680156102535780820380516001836020036101000a031916815260200191505b5097505050505050505060405180910390f35b61045a6004803603608081101561027c57600080fd5b810190808035906020019064010000000081111561029957600080fd5b8201836020820111156102ab57600080fd5b803590602001918460018302840111640100000000831117156102cd57600080fd5b91908080601f016020809104026020016040519081016040528093929190818152602001838380828437600081840152601f19601f8201169050808301925050505050505091929192908035906020019064010000000081111561033057600080fd5b82018360208201111561034257600080fd5b8035906020019184600183028401116401000000008311171561036457600080fd5b91908080601f016020809104026020016040519081016040528093929190818152602001838380828437600081840152601f19601f820116905080830192505050505050509192919290803590602001906401000000008111156103c757600080fd5b8201836020820111156103d957600080fd5b803590602001918460018302840111640100000000831117156103fb57600080fd5b91908080601f016020809104026020016040519081016040528093929190818152602001838380828437600081840152601f19601f820116905080830192505050505050509192919290803560ff169060200190929190505050610cb7565b005b61048b6004803603602081101561047257600080fd5b81019080803560ff169060200190929190505050610eca565b005b610546600480360360208110156104a357600080fd5b81019080803590602001906401000000008111156104c057600080fd5b8201836020820111156104d257600080fd5b803590602001918460018302840111640100000000831117156104f457600080fd5b91908080601f016020809104026020016040519081016040528093929190818152602001838380828437600081840152601f19601f820116905080830192505050505050509192919290505050611034565b005b610550611192565b6040518082815260200191505060405180910390f35b61056e61119f565b60405180806020018873ffffffffffffffffffffffffffffffffffffffff1673ffffffffffffffffffffffffffffffffffffffff1681526020018060200180602001806020018760ff1660ff1681526020018660028111156105cc57fe5b60ff16815260200185810385528c818151815260200191508051906020019080838360005b8381101561060c5780820151818401526020810190506105f1565b50505050905090810190601f1680156106395780820380516001836020036101000a031916815260200191505b5085810384528a818151815260200191508051906020019080838360005b83811015610672578082015181840152602081019050610657565b50505050905090810190601f16801561069f5780820380516001836020036101000a031916815260200191505b50858103835289818151815260200191508051906020019080838360005b838110156106d85780820151818401526020810190506106bd565b50505050905090810190601f1680156107055780820380516001836020036101000a031916815260200191505b50858103825288818151815260200191508051906020019080838360005b8381101561073e578082015181840152602081019050610723565b50505050905090810190601f16801561076b5780820380516001836020036101000a031916815260200191505b509b50505050505050505050505060405180910390f35b61083b6004803603602081101561079857600080fd5b81019080803590602001906401000000008111156107b557600080fd5b8201836020820111156107c757600080fd5b803590602001918460018302840111640100000000831117156107e957600080fd5b91908080601f016020809104026020016040519081016040528093929190818152602001838380828437600081840152601f19601f820116905080830192505050505050509192919290505050611469565b005b6108f66004803603602081101561085357600080fd5b810190808035906020019064010000000081111561087057600080fd5b82018360208201111561088257600080fd5b803590602001918460018302840111640100000000831117156108a457600080fd5b91908080601f016020809104026020016040519081016040528093929190818152602001838380828437600081840152601f19601f8201169050808301925050505050505091929192905050506115c7565b005b610900611725565b005b6109bb6004803603602081101561091857600080fd5b810190808035906020019064010000000081111561093557600080fd5b82018360208201111561094757600080fd5b8035906020019184600183028401116401000000008311171561096957600080fd5b91908080601f016020809104026020016040519081016040528093929190818152602001838380828437600081840152601f19601f82011690508083019250505050505050919291929050505061190a565b005b600860009054906101000a900460ff1681565b60608060606000846109e0611192565b808210610a55576040517f08c379a000000000000000000000000000000000000000000000000000000000815260040180806020018281038252600d8152602001807f4f7574206f662072616e67652e0000000000000000000000000000000000000081525060200191505060405180910390fd5b610a5d611a68565b60078881548110610a6a57fe5b9060005260206000209060040201604051806080016040529081600082018054600181600116156101000203166002900480601f016020809104026020016040519081016040528092919081815260200182805460018160011615610100020316600290048015610b1c5780601f10610af157610100808354040283529160200191610b1c565b820191906000526020600020905b815481529060010190602001808311610aff57829003601f168201915b50505050508152602001600182018054600181600116156101000203166002900480601f016020809104026020016040519081016040528092919081815260200182805460018160011615610100020316600290048015610bbe5780601f10610b9357610100808354040283529160200191610bbe565b820191906000526020600020905b815481529060010190602001808311610ba157829003601f168201915b50505050508152602001600282018054600181600116156101000203166002900480601f016020809104026020016040519081016040528092919081815260200182805460018160011615610100020316600290048015610c605780601f10610c3557610100808354040283529160200191610c60565b820191906000526020600020905b815481529060010190602001808311610c4357829003601f168201915b505050505081526020016003820160009054906101000a900460ff1660ff1660ff16815250509050806000015181602001518260400151836060015183935082925081915096509650965096505050509193509193565b6000809054906101000a900473ffffffffffffffffffffffffffffffffffffffff1673ffffffffffffffffffffffffffffffffffffffff163373ffffffffffffffffffffffffffffffffffffffff1614610d79576040517f08c379a000000000000000000000000000000000000000000000000000000000815260040180806020018281038252600b8152602001807f4e6f74207363686f6f6c2100000000000000000000000000000000000000000081525060200191505060405180910390fd5b600760405180608001604052808681526020018581526020018481526020018360ff16815250908060018154018082558091505090600182039060005260206000209060040201600090919290919091506000820151816000019080519060200190610de6929190611a93565b506020820151816001019080519060200190610e03929190611a93565b506040820151816002019080519060200190610e20929190611a93565b5060608201518160030160006101000a81548160ff021916908360ff1602179055505050507f26aaa12d2ac51334f2a0f54ee45add899f031d9163d6c3254931cb616a6ddfd6600060405180826007811115610e7857fe5b60ff168152602001806020018281038252600a8152602001807f53657420436f75727365000000000000000000000000000000000000000000008152506020019250505060405180910390a150505050565b6000809054906101000a900473ffffffffffffffffffffffffffffffffffffffff1673ffffffffffffffffffffffffffffffffffffffff163373ffffffffffffffffffffffffffffffffffffffff1614610f8c576040517f08c379a000000000000000000000000000000000000000000000000000000000815260040180806020018281038252600b8152602001807f4e6f74207363686f6f6c2100000000000000000000000000000000000000000081525060200191505060405180910390fd5b80600160050160016101000a81548160ff02191690836002811115610fad57fe5b02179055507f26aaa12d2ac51334f2a0f54ee45add899f031d9163d6c3254931cb616a6ddfd6600760405180826007811115610fe557fe5b60ff16815260200180602001828103825260138152602001807f53657420456475636174696f6e537461747573000000000000000000000000008152506020019250505060405180910390a150565b6000809054906101000a900473ffffffffffffffffffffffffffffffffffffffff1673ffffffffffffffffffffffffffffffffffffffff163373ffffffffffffffffffffffffffffffffffffffff16146110f6576040517f08c379a000000000000000000000000000000000000000000000000000000000815260040180806020018281038252600b8152602001807f4e6f74207363686f6f6c2100000000000000000000000000000000000000000081525060200191505060405180910390fd5b806001600401908051906020019061110f929190611b13565b507f26aaa12d2ac51334f2a0f54ee45add899f031d9163d6c3254931cb616a6ddfd660046040518082600781111561114357fe5b60ff16815260200180602001828103825260098152602001807f536574204d696e6f7200000000000000000000000000000000000000000000008152506020019250505060405180910390a150565b6000600780549050905090565b6001806000018054600181600116156101000203166002900480601f0160208091040260200160405190810160405280929190818152602001828054600181600116156101000203166002900480156112395780601f1061120e57610100808354040283529160200191611239565b820191906000526020600020905b81548152906001019060200180831161121c57829003601f168201915b5050505050908060010160009054906101000a900473ffffffffffffffffffffffffffffffffffffffff1690806002018054600181600116156101000203166002900480601f0160208091040260200160405190810160405280929190818152602001828054600181600116156101000203166002900480156112fd5780601f106112d2576101008083540402835291602001916112fd565b820191906000526020600020905b8154815290600101906020018083116112e057829003601f168201915b505050505090806003018054600181600116156101000203166002900480601f01602080910402602001604051908101604052809291908181526020018280546001816001161561010002031660029004801561139b5780601f106113705761010080835404028352916020019161139b565b820191906000526020600020905b81548152906001019060200180831161137e57829003601f168201915b505050505090806004018054600181600116156101000203166002900480601f0160208091040260200160405190810160405280929190818152602001828054600181600116156101000203166002900480156114395780601f1061140e57610100808354040283529160200191611439565b820191906000526020600020905b81548152906001019060200180831161141c57829003601f168201915b5050505050908060050160009054906101000a900460ff16908060050160019054906101000a900460ff16905087565b6000809054906101000a900473ffffffffffffffffffffffffffffffffffffffff1673ffffffffffffffffffffffffffffffffffffffff163373ffffffffffffffffffffffffffffffffffffffff161461152b576040517f08c379a000000000000000000000000000000000000000000000000000000000815260040180806020018281038252600b8152602001807f4e6f74207363686f6f6c2100000000000000000000000000000000000000000081525060200191505060405180910390fd5b8060016003019080519060200190611544929190611b13565b507f26aaa12d2ac51334f2a0f54ee45add899f031d9163d6c3254931cb616a6ddfd660036040518082600781111561157857fe5b60ff16815260200180602001828103825260098152602001807f536574204d616a6f7200000000000000000000000000000000000000000000008152506020019250505060405180910390a150565b6000809054906101000a900473ffffffffffffffffffffffffffffffffffffffff1673ffffffffffffffffffffffffffffffffffffffff163373ffffffffffffffffffffffffffffffffffffffff1614611689576040517f08c379a000000000000000000000000000000000000000000000000000000000815260040180806020018281038252600b8152602001807f4e6f74207363686f6f6c2100000000000000000000000000000000000000000081525060200191505060405180910390fd5b80600160000190805190602001906116a2929190611b13565b507f26aaa12d2ac51334f2a0f54ee45add899f031d9163d6c3254931cb616a6ddfd66005604051808260078111156116d657fe5b60ff16815260200180602001828103825260088152602001807f536574204e616d650000000000000000000000000000000000000000000000008152506020019250505060405180910390a150565b600a600780549050116117a0576040517f08c379a000000000000000000000000000000000000000000000000000000000815260040180806020018281038252600e8152602001807f4e6f74207965742066696e69736800000000000000000000000000000000000081525060200191505060405180910390fd5b6001800160009054906101000a900473ffffffffffffffffffffffffffffffffffffffff1673ffffffffffffffffffffffffffffffffffffffff163373ffffffffffffffffffffffffffffffffffffffff1614611865576040517f08c379a000000000000000000000000000000000000000000000000000000000815260040180806020018281038252600c8152602001807f4e6f742073747564656e7421000000000000000000000000000000000000000081525060200191505060405180910390fd5b6002600860006101000a81548160ff0219169083600281111561188457fe5b02179055507f26aaa12d2ac51334f2a0f54ee45add899f031d9163d6c3254931cb616a6ddfd66001604051808260078111156118bc57fe5b60ff168152602001806020018281038252600f8152602001807f53657420436572746966696361746500000000000000000000000000000000008152506020019250505060405180910390a1565b6000809054906101000a900473ffffffffffffffffffffffffffffffffffffffff1673ffffffffffffffffffffffffffffffffffffffff163373ffffffffffffffffffffffffffffffffffffffff16146119cc576040517f08c379a000000000000000000000000000000000000000000000000000000000815260040180806020018281038252600b8152602001807f4e6f74207363686f6f6c2100000000000000000000000000000000000000000081525060200191505060405180910390fd5b80600160020190805190602001906119e5929190611b13565b507f26aaa12d2ac51334f2a0f54ee45add899f031d9163d6c3254931cb616a6ddfd6600260405180826007811115611a1957fe5b60ff168152602001806020018281038252600a8152602001807f536574205363686f6f6c000000000000000000000000000000000000000000008152506020019250505060405180910390a150565b6040518060800160405280606081526020016060815260200160608152602001600060ff1681525090565b828054600181600116156101000203166002900490600052602060002090601f016020900481019282601f10611ad457805160ff1916838001178555611b02565b82800160010185558215611b02579182015b82811115611b01578251825591602001919060010190611ae6565b5b509050611b0f9190611b93565b5090565b828054600181600116156101000203166002900490600052602060002090601f016020900481019282601f10611b5457805160ff1916838001178555611b82565b82800160010185558215611b82579182015b82811115611b81578251825591602001919060010190611b66565b5b509050611b8f9190611b93565b5090565b611bb591905b80821115611bb1576000816000905550600101611b99565b5090565b9056fea265627a7a72315820275cf9588cd345127740add0bb03c5cb4dc513750fa484bd6eee23a0fab4f43e64736f6c63430005100032",
  "source": "pragma solidity >0.0.0;\n\ncontract Certificate {\n    \n    //  (school)\n    //  (profile)\n    //  (courses)  (educationStatus) \n    //  courses \n    //  educationStatus \n    // \n    // https://ithelp.ithome.com.tw/articles/10222379\n    \n    address internal school; // \n    \n    Profile public profile; // \n    \n    Course[] internal courses; // \n    \n    EducationStatus public educationStatus; // \n    \n    // \n    constructor(string memory name, address account, string memory schoolName, string memory major, string memory minor, uint8 enrollYear) public {\n        school = msg.sender;\n        profile = Profile({\n            name: name,\n            account: account,\n            schoolName: schoolName,\n            major: major,\n            minor: minor,\n            enrollYear: enrollYear,\n            educationStatus: EducationStatus.learning\n        });\n    }\n    \n    // \n    struct Profile {\n        string name; // \n        address account; // \n        string schoolName; // \n        string major; // \n        string minor; //\n        uint8 enrollYear; //\n        EducationStatus educationStatus; //\n        \n    }\n    \n    // \n    struct Course {\n        string name; // \n        string content; // \n        string comment; // \n        uint8 grade; // \n    }\n    \n    // \n    enum EducationStatus {\n        undergraduate, // \n        learning, // \n        graduate // \n    }\n    \n    // \n    modifier checkSchool {\n        require(msg.sender == school, \"Not school!\");\n        _;\n    }\n    \n    // \n    modifier checkStudent {\n        require(msg.sender == profile.account, \"Not student!\");\n        _;\n    }\n    \n    // \n    modifier checkEducationStatus {\n        require(profile.educationStatus == EducationStatus.learning, \"Not student!\");\n        _;\n    }\n    \n    \n    //  Index \n    modifier IndexValidator(uint index, uint max) {\n        require(index < max, \"Out of range.\");\n        _;\n    }\n    \n    // \n    event done(DoneCode eventCode, string message);\n\n    enum DoneCode {\n        setCourse, // \n        setCertificate, // \n        setSchool, // \n        setMajor, // \n        setMinor, // \n        setName, // \n        setEnrollYear, //\n        setEducationStatus //\n    }\n    \n    // \n    function getCourseCount() public view returns(uint) {\n        return courses.length;\n    }\n    \n    // \n    function getCourse(uint index) public view IndexValidator(index, getCourseCount())\n        returns(string memory, string memory, string memory, uint8) {\n        Course memory course = courses[index];\n        return(course.name, course.content, course.comment, course.grade);\n    }\n    \n    // \n    function setCourse(string memory name, string memory content, string memory comment, uint8 grade) public checkSchool {\n        courses.push(Course({ name: name, content: content, comment: comment, grade: grade }));\n        emit done(DoneCode.setCourse, \"Set Course\");\n    }\n    \n    \n    // \n    modifier checkFinish() {\n        require(courses.length > 10, \"Not yet finish\"); // \n        _;\n    }\n    \n    // \n    function setCertificate() public checkFinish checkStudent{\n        educationStatus = EducationStatus.graduate;\n        emit done(DoneCode.setCertificate, \"Set Certificate\");\n    }\n    \n    // \n    function setSchool(string memory newSchool) public checkSchool {\n        profile.schoolName = newSchool;\n        emit done(DoneCode.setSchool, \"Set School\");\n    }\n    \n    // \n    function setMajor(string memory newMajor) public checkSchool {\n        profile.major = newMajor;\n        emit done(DoneCode.setMajor, \"Set Major\");\n    }\n    \n    // \n     function setMinor(string memory newMinor) public checkSchool {\n        profile.minor = newMinor;\n        emit done(DoneCode.setMinor, \"Set Minor\");\n    }\n    \n    // \n    function setName(string memory newName) public checkSchool {\n        profile.name = newName;\n        emit done(DoneCode.setName, \"Set Name\");\n    }\n        \n    // \n    function setEducationStatus(EducationStatus newEducationStatus) public checkSchool {\n        profile.educationStatus = newEducationStatus;\n        emit done(DoneCode.setEducationStatus, \"Set EducationStatus\");\n    }\n    \n}\n",
  "sourcePath": "/Users/john/Desktop/Block-Chain-Final/contracts/Certificate.sol",
  "compiler": {
    "name": "solc",
    "version": "0.5.16+commit.9c3226ce.Emscripten.clang"
  },
  "schemaVersion": "3.4.1",
  "updatedAt": "2021-06-19T09:08:22.283Z",
  "devdoc": {
    "methods": {}
  },
  "userdoc": {
    "methods": {}
  }
}