{
  "contractName": "Certificate",
  "abi": [
    {
      "inputs": [
        {
          "internalType": "string",
          "name": "name",
          "type": "string"
        },
        {
          "internalType": "address",
          "name": "account",
          "type": "address"
        },
        {
          "internalType": "string",
          "name": "schoolName",
          "type": "string"
        },
        {
          "internalType": "string",
          "name": "major",
          "type": "string"
        },
        {
          "internalType": "string",
          "name": "minor",
          "type": "string"
        },
        {
          "internalType": "uint8",
          "name": "enrollYear",
          "type": "uint8"
        }
      ],
      "payable": false,
      "stateMutability": "nonpayable",
      "type": "constructor"
    },
    {
      "anonymous": false,
      "inputs": [
        {
          "indexed": false,
          "internalType": "enum Certificate.DoneCode",
          "name": "eventCode",
          "type": "uint8"
        },
        {
          "indexed": false,
          "internalType": "string",
          "name": "message",
          "type": "string"
        }
      ],
      "name": "done",
      "type": "event"
    },
    {
      "constant": true,
      "inputs": [],
      "name": "educationStatus",
      "outputs": [
        {
          "internalType": "enum Certificate.EducationStatus",
          "name": "",
          "type": "uint8"
        }
      ],
      "payable": false,
      "stateMutability": "view",
      "type": "function"
    },
    {
      "constant": true,
      "inputs": [],
      "name": "profile",
      "outputs": [
        {
          "internalType": "string",
          "name": "name",
          "type": "string"
        },
        {
          "internalType": "address",
          "name": "account",
          "type": "address"
        },
        {
          "internalType": "string",
          "name": "schoolName",
          "type": "string"
        },
        {
          "internalType": "string",
          "name": "major",
          "type": "string"
        },
        {
          "internalType": "string",
          "name": "minor",
          "type": "string"
        },
        {
          "internalType": "uint8",
          "name": "enrollYear",
          "type": "uint8"
        }
      ],
      "payable": false,
      "stateMutability": "view",
      "type": "function"
    },
    {
      "constant": true,
      "inputs": [],
      "name": "getCourseCount",
      "outputs": [
        {
          "internalType": "uint256",
          "name": "",
          "type": "uint256"
        }
      ],
      "payable": false,
      "stateMutability": "view",
      "type": "function"
    },
    {
      "constant": true,
      "inputs": [
        {
          "internalType": "uint256",
          "name": "index",
          "type": "uint256"
        }
      ],
      "name": "getCourse",
      "outputs": [
        {
          "internalType": "string",
          "name": "",
          "type": "string"
        },
        {
          "internalType": "string",
          "name": "",
          "type": "string"
        },
        {
          "internalType": "string",
          "name": "",
          "type": "string"
        },
        {
          "internalType": "uint8",
          "name": "",
          "type": "uint8"
        }
      ],
      "payable": false,
      "stateMutability": "view",
      "type": "function"
    },
    {
      "constant": false,
      "inputs": [
        {
          "internalType": "string",
          "name": "name",
          "type": "string"
        },
        {
          "internalType": "string",
          "name": "content",
          "type": "string"
        },
        {
          "internalType": "string",
          "name": "comment",
          "type": "string"
        },
        {
          "internalType": "uint8",
          "name": "grade",
          "type": "uint8"
        }
      ],
      "name": "setCourse",
      "outputs": [],
      "payable": false,
      "stateMutability": "nonpayable",
      "type": "function"
    },
    {
      "constant": false,
      "inputs": [],
      "name": "checkFinishCertificate",
      "outputs": [
        {
          "internalType": "bool",
          "name": "",
          "type": "bool"
        }
      ],
      "payable": false,
      "stateMutability": "nonpayable",
      "type": "function"
    },
    {
      "constant": true,
      "inputs": [],
      "name": "getEducationStatus",
      "outputs": [
        {
          "internalType": "string",
          "name": "",
          "type": "string"
        }
      ],
      "payable": false,
      "stateMutability": "view",
      "type": "function"
    },
    {
      "constant": false,
      "inputs": [],
      "name": "setCertificate",
      "outputs": [],
      "payable": false,
      "stateMutability": "nonpayable",
      "type": "function"
    },
    {
      "constant": false,
      "inputs": [
        {
          "internalType": "string",
          "name": "newSchool",
          "type": "string"
        }
      ],
      "name": "setSchool",
      "outputs": [],
      "payable": false,
      "stateMutability": "nonpayable",
      "type": "function"
    },
    {
      "constant": false,
      "inputs": [
        {
          "internalType": "string",
          "name": "newMajor",
          "type": "string"
        }
      ],
      "name": "setMajor",
      "outputs": [],
      "payable": false,
      "stateMutability": "nonpayable",
      "type": "function"
    },
    {
      "constant": false,
      "inputs": [
        {
          "internalType": "string",
          "name": "newMinor",
          "type": "string"
        }
      ],
      "name": "setMinor",
      "outputs": [],
      "payable": false,
      "stateMutability": "nonpayable",
      "type": "function"
    },
    {
      "constant": false,
      "inputs": [
        {
          "internalType": "string",
          "name": "newName",
          "type": "string"
        }
      ],
      "name": "setName",
      "outputs": [],
      "payable": false,
      "stateMutability": "nonpayable",
      "type": "function"
    },
    {
      "constant": false,
      "inputs": [
        {
          "internalType": "enum Certificate.EducationStatus",
          "name": "newEducationStatus",
          "type": "uint8"
        }
      ],
      "name": "setEducationStatus",
      "outputs": [],
      "payable": false,
      "stateMutability": "nonpayable",
      "type": "function"
    }
  ],
  "bytecode": "0x60806040523480156200001157600080fd5b50604051620022a2380380620022a2833981810160405260c08110156200003757600080fd5b81019080805160405193929190846401000000008211156200005857600080fd5b838201915060208201858111156200006f57600080fd5b82518660018202830111640100000000821117156200008d57600080fd5b8083526020830192505050908051906020019080838360005b83811015620000c3578082015181840152602081019050620000a6565b50505050905090810190601f168015620000f15780820380516001836020036101000a031916815260200191505b5060405260200180519060200190929190805160405193929190846401000000008211156200011f57600080fd5b838201915060208201858111156200013657600080fd5b82518660018202830111640100000000821117156200015457600080fd5b8083526020830192505050908051906020019080838360005b838110156200018a5780820151818401526020810190506200016d565b50505050905090810190601f168015620001b85780820380516001836020036101000a031916815260200191505b5060405260200180516040519392919084640100000000821115620001dc57600080fd5b83820191506020820185811115620001f357600080fd5b82518660018202830111640100000000821117156200021157600080fd5b8083526020830192505050908051906020019080838360005b83811015620002475780820151818401526020810190506200022a565b50505050905090810190601f168015620002755780820380516001836020036101000a031916815260200191505b50604052602001805160405193929190846401000000008211156200029957600080fd5b83820191506020820185811115620002b057600080fd5b8251866001820283011164010000000082111715620002ce57600080fd5b8083526020830192505050908051906020019080838360005b8381101562000304578082015181840152602081019050620002e7565b50505050905090810190601f168015620003325780820380516001836020036101000a031916815260200191505b5060405260200180519060200190929190505050336000806101000a81548173ffffffffffffffffffffffffffffffffffffffff021916908373ffffffffffffffffffffffffffffffffffffffff1602179055506001600860006101000a81548160ff02191690836002811115620003a657fe5b02179055506040518060c001604052808781526020018673ffffffffffffffffffffffffffffffffffffffff1681526020018581526020018481526020018381526020018260ff168152506001600082015181600001908051906020019062000411929190620004e6565b5060208201518160010160006101000a81548173ffffffffffffffffffffffffffffffffffffffff021916908373ffffffffffffffffffffffffffffffffffffffff160217905550604082015181600201908051906020019062000477929190620004e6565b50606082015181600301908051906020019062000496929190620004e6565b506080820151816004019080519060200190620004b5929190620004e6565b5060a08201518160050160006101000a81548160ff021916908360ff16021790555090505050505050505062000595565b828054600181600116156101000203166002900490600052602060002090601f016020900481019282601f106200052957805160ff19168380011785556200055a565b828001600101855582156200055a579182015b82811115620005595782518255916020019190600101906200053c565b5b5090506200056991906200056d565b5090565b6200059291905b808211156200058e57600081600090555060010162000574565b5090565b90565b611cfd80620005a56000396000f3fe608060405234801561001057600080fd5b50600436106100cf5760003560e01c806396cfda061161008c578063c47f002711610066578063c47f002714610870578063d995dac31461092b578063e3f983c014610935578063fb3aa78d146109f0576100cf565b806396cfda0614610590578063ab60636c146105ae578063ae38c43e146107b5576100cf565b8063051f96b0146100d45780630b91e28d1461010057806331b546b11461028c5780633981b8da146104825780633a876a23146104b35780638f7b45d0146104d5575b600080fd5b6100dc610a73565b604051808260028111156100ec57fe5b60ff16815260200191505060405180910390f35b61012c6004803603602081101561011657600080fd5b8101908080359060200190929190505050610a86565b604051808060200180602001806020018560ff1660ff168152602001848103845288818151815260200191508051906020019080838360005b83811015610180578082015181840152602081019050610165565b50505050905090810190601f1680156101ad5780820380516001836020036101000a031916815260200191505b50848103835287818151815260200191508051906020019080838360005b838110156101e65780820151818401526020810190506101cb565b50505050905090810190601f1680156102135780820380516001836020036101000a031916815260200191505b50848103825286818151815260200191508051906020019080838360005b8381101561024c578082015181840152602081019050610231565b50505050905090810190601f1680156102795780820380516001836020036101000a031916815260200191505b5097505050505050505060405180910390f35b610480600480360360808110156102a257600080fd5b81019080803590602001906401000000008111156102bf57600080fd5b8201836020820111156102d157600080fd5b803590602001918460018302840111640100000000831117156102f357600080fd5b91908080601f016020809104026020016040519081016040528093929190818152602001838380828437600081840152601f19601f8201169050808301925050505050505091929192908035906020019064010000000081111561035657600080fd5b82018360208201111561036857600080fd5b8035906020019184600183028401116401000000008311171561038a57600080fd5b91908080601f016020809104026020016040519081016040528093929190818152602001838380828437600081840152601f19601f820116905080830192505050505050509192919290803590602001906401000000008111156103ed57600080fd5b8201836020820111156103ff57600080fd5b8035906020019184600183028401116401000000008311171561042157600080fd5b91908080601f016020809104026020016040519081016040528093929190818152602001838380828437600081840152601f19601f820116905080830192505050505050509192919290803560ff169060200190929190505050610d6d565b005b6104b16004803603602081101561049857600080fd5b81019080803560ff169060200190929190505050610f80565b005b6104bb6110e7565b604051808215151515815260200191505060405180910390f35b61058e600480360360208110156104eb57600080fd5b810190808035906020019064010000000081111561050857600080fd5b82018360208201111561051a57600080fd5b8035906020019184600183028401116401000000008311171561053c57600080fd5b91908080601f016020809104026020016040519081016040528093929190818152602001838380828437600081840152601f19601f820116905080830192505050505050509192919290505050611108565b005b610598611266565b6040518082815260200191505060405180910390f35b6105b6611273565b60405180806020018773ffffffffffffffffffffffffffffffffffffffff1673ffffffffffffffffffffffffffffffffffffffff1681526020018060200180602001806020018660ff1660ff16815260200185810385528b818151815260200191508051906020019080838360005b83811015610640578082015181840152602081019050610625565b50505050905090810190601f16801561066d5780820380516001836020036101000a031916815260200191505b50858103845289818151815260200191508051906020019080838360005b838110156106a657808201518184015260208101905061068b565b50505050905090810190601f1680156106d35780820380516001836020036101000a031916815260200191505b50858103835288818151815260200191508051906020019080838360005b8381101561070c5780820151818401526020810190506106f1565b50505050905090810190601f1680156107395780820380516001836020036101000a031916815260200191505b50858103825287818151815260200191508051906020019080838360005b83811015610772578082015181840152602081019050610757565b50505050905090810190601f16801561079f5780820380516001836020036101000a031916815260200191505b509a505050505050505050505060405180910390f35b61086e600480360360208110156107cb57600080fd5b81019080803590602001906401000000008111156107e857600080fd5b8201836020820111156107fa57600080fd5b8035906020019184600183028401116401000000008311171561081c57600080fd5b91908080601f016020809104026020016040519081016040528093929190818152602001838380828437600081840152601f19601f82011690508083019250505050505050919291929050505061152a565b005b6109296004803603602081101561088657600080fd5b81019080803590602001906401000000008111156108a357600080fd5b8201836020820111156108b557600080fd5b803590602001918460018302840111640100000000831117156108d757600080fd5b91908080601f016020809104026020016040519081016040528093929190818152602001838380828437600081840152601f19601f820116905080830192505050505050509192919290505050611688565b005b6109336117e6565b005b6109ee6004803603602081101561094b57600080fd5b810190808035906020019064010000000081111561096857600080fd5b82018360208201111561097a57600080fd5b8035906020019184600183028401116401000000008311171561099c57600080fd5b91908080601f016020809104026020016040519081016040528093929190818152602001838380828437600081840152601f19601f820116905080830192505050505050509192919290505050611906565b005b6109f8611a64565b6040518080602001828103825283818151815260200191508051906020019080838360005b83811015610a38578082015181840152602081019050610a1d565b50505050905090810190601f168015610a655780820380516001836020036101000a031916815260200191505b509250505060405180910390f35b600860009054906101000a900460ff1681565b6060806060600084610a96611266565b808210610b0b576040517f08c379a000000000000000000000000000000000000000000000000000000000815260040180806020018281038252600d8152602001807f4f7574206f662072616e67652e0000000000000000000000000000000000000081525060200191505060405180910390fd5b610b13611b78565b60078881548110610b2057fe5b9060005260206000209060040201604051806080016040529081600082018054600181600116156101000203166002900480601f016020809104026020016040519081016040528092919081815260200182805460018160011615610100020316600290048015610bd25780601f10610ba757610100808354040283529160200191610bd2565b820191906000526020600020905b815481529060010190602001808311610bb557829003601f168201915b50505050508152602001600182018054600181600116156101000203166002900480601f016020809104026020016040519081016040528092919081815260200182805460018160011615610100020316600290048015610c745780601f10610c4957610100808354040283529160200191610c74565b820191906000526020600020905b815481529060010190602001808311610c5757829003601f168201915b50505050508152602001600282018054600181600116156101000203166002900480601f016020809104026020016040519081016040528092919081815260200182805460018160011615610100020316600290048015610d165780601f10610ceb57610100808354040283529160200191610d16565b820191906000526020600020905b815481529060010190602001808311610cf957829003601f168201915b505050505081526020016003820160009054906101000a900460ff1660ff1660ff16815250509050806000015181602001518260400151836060015183935082925081915096509650965096505050509193509193565b6000809054906101000a900473ffffffffffffffffffffffffffffffffffffffff1673ffffffffffffffffffffffffffffffffffffffff163373ffffffffffffffffffffffffffffffffffffffff1614610e2f576040517f08c379a000000000000000000000000000000000000000000000000000000000815260040180806020018281038252600b8152602001807f4e6f74207363686f6f6c2100000000000000000000000000000000000000000081525060200191505060405180910390fd5b600760405180608001604052808681526020018581526020018481526020018360ff16815250908060018154018082558091505090600182039060005260206000209060040201600090919290919091506000820151816000019080519060200190610e9c929190611ba3565b506020820151816001019080519060200190610eb9929190611ba3565b506040820151816002019080519060200190610ed6929190611ba3565b5060608201518160030160006101000a81548160ff021916908360ff1602179055505050507f26aaa12d2ac51334f2a0f54ee45add899f031d9163d6c3254931cb616a6ddfd6600060405180826007811115610f2e57fe5b60ff168152602001806020018281038252600a8152602001807f53657420436f75727365000000000000000000000000000000000000000000008152506020019250505060405180910390a150505050565b6000809054906101000a900473ffffffffffffffffffffffffffffffffffffffff1673ffffffffffffffffffffffffffffffffffffffff163373ffffffffffffffffffffffffffffffffffffffff1614611042576040517f08c379a000000000000000000000000000000000000000000000000000000000815260040180806020018281038252600b8152602001807f4e6f74207363686f6f6c2100000000000000000000000000000000000000000081525060200191505060405180910390fd5b80600860006101000a81548160ff0219169083600281111561106057fe5b02179055507f26aaa12d2ac51334f2a0f54ee45add899f031d9163d6c3254931cb616a6ddfd660076040518082600781111561109857fe5b60ff16815260200180602001828103825260138152602001807f53657420456475636174696f6e537461747573000000000000000000000000008152506020019250505060405180910390a150565b6000600260078054905011156111005760019050611105565b600090505b90565b6000809054906101000a900473ffffffffffffffffffffffffffffffffffffffff1673ffffffffffffffffffffffffffffffffffffffff163373ffffffffffffffffffffffffffffffffffffffff16146111ca576040517f08c379a000000000000000000000000000000000000000000000000000000000815260040180806020018281038252600b8152602001807f4e6f74207363686f6f6c2100000000000000000000000000000000000000000081525060200191505060405180910390fd5b80600160040190805190602001906111e3929190611c23565b507f26aaa12d2ac51334f2a0f54ee45add899f031d9163d6c3254931cb616a6ddfd660046040518082600781111561121757fe5b60ff16815260200180602001828103825260098152602001807f536574204d696e6f7200000000000000000000000000000000000000000000008152506020019250505060405180910390a150565b6000600780549050905090565b6001806000018054600181600116156101000203166002900480601f01602080910402602001604051908101604052809291908181526020018280546001816001161561010002031660029004801561130d5780601f106112e25761010080835404028352916020019161130d565b820191906000526020600020905b8154815290600101906020018083116112f057829003601f168201915b5050505050908060010160009054906101000a900473ffffffffffffffffffffffffffffffffffffffff1690806002018054600181600116156101000203166002900480601f0160208091040260200160405190810160405280929190818152602001828054600181600116156101000203166002900480156113d15780601f106113a6576101008083540402835291602001916113d1565b820191906000526020600020905b8154815290600101906020018083116113b457829003601f168201915b505050505090806003018054600181600116156101000203166002900480601f01602080910402602001604051908101604052809291908181526020018280546001816001161561010002031660029004801561146f5780601f106114445761010080835404028352916020019161146f565b820191906000526020600020905b81548152906001019060200180831161145257829003601f168201915b505050505090806004018054600181600116156101000203166002900480601f01602080910402602001604051908101604052809291908181526020018280546001816001161561010002031660029004801561150d5780601f106114e25761010080835404028352916020019161150d565b820191906000526020600020905b8154815290600101906020018083116114f057829003601f168201915b5050505050908060050160009054906101000a900460ff16905086565b6000809054906101000a900473ffffffffffffffffffffffffffffffffffffffff1673ffffffffffffffffffffffffffffffffffffffff163373ffffffffffffffffffffffffffffffffffffffff16146115ec576040517f08c379a000000000000000000000000000000000000000000000000000000000815260040180806020018281038252600b8152602001807f4e6f74207363686f6f6c2100000000000000000000000000000000000000000081525060200191505060405180910390fd5b8060016003019080519060200190611605929190611c23565b507f26aaa12d2ac51334f2a0f54ee45add899f031d9163d6c3254931cb616a6ddfd660036040518082600781111561163957fe5b60ff16815260200180602001828103825260098152602001807f536574204d616a6f7200000000000000000000000000000000000000000000008152506020019250505060405180910390a150565b6000809054906101000a900473ffffffffffffffffffffffffffffffffffffffff1673ffffffffffffffffffffffffffffffffffffffff163373ffffffffffffffffffffffffffffffffffffffff161461174a576040517f08c379a000000000000000000000000000000000000000000000000000000000815260040180806020018281038252600b8152602001807f4e6f74207363686f6f6c2100000000000000000000000000000000000000000081525060200191505060405180910390fd5b8060016000019080519060200190611763929190611c23565b507f26aaa12d2ac51334f2a0f54ee45add899f031d9163d6c3254931cb616a6ddfd660056040518082600781111561179757fe5b60ff16815260200180602001828103825260088152602001807f536574204e616d650000000000000000000000000000000000000000000000008152506020019250505060405180910390a150565b600260078054905011611861576040517f08c379a000000000000000000000000000000000000000000000000000000000815260040180806020018281038252600e8152602001807f4e6f74207965742066696e69736800000000000000000000000000000000000081525060200191505060405180910390fd5b6002600860006101000a81548160ff0219169083600281111561188057fe5b02179055507f26aaa12d2ac51334f2a0f54ee45add899f031d9163d6c3254931cb616a6ddfd66001604051808260078111156118b857fe5b60ff168152602001806020018281038252600f8152602001807f53657420436572746966696361746500000000000000000000000000000000008152506020019250505060405180910390a1565b6000809054906101000a900473ffffffffffffffffffffffffffffffffffffffff1673ffffffffffffffffffffffffffffffffffffffff163373ffffffffffffffffffffffffffffffffffffffff16146119c8576040517f08c379a000000000000000000000000000000000000000000000000000000000815260040180806020018281038252600b8152602001807f4e6f74207363686f6f6c2100000000000000000000000000000000000000000081525060200191505060405180910390fd5b80600160020190805190602001906119e1929190611c23565b507f26aaa12d2ac51334f2a0f54ee45add899f031d9163d6c3254931cb616a6ddfd6600260405180826007811115611a1557fe5b60ff168152602001806020018281038252600a8152602001807f536574205363686f6f6c000000000000000000000000000000000000000000008152506020019250505060405180910390a150565b606060006002811115611a7357fe5b600860009054906101000a900460ff166002811115611a8e57fe5b1415611ad1576040518060400160405280600d81526020017f756e6465726772616475617465000000000000000000000000000000000000008152509050611b75565b60016002811115611ade57fe5b600860009054906101000a900460ff166002811115611af957fe5b1415611b3c576040518060400160405280600781526020017f6c656172696e67000000000000000000000000000000000000000000000000008152509050611b75565b6040518060400160405280600881526020017f677261647561746500000000000000000000000000000000000000000000000081525090505b90565b6040518060800160405280606081526020016060815260200160608152602001600060ff1681525090565b828054600181600116156101000203166002900490600052602060002090601f016020900481019282601f10611be457805160ff1916838001178555611c12565b82800160010185558215611c12579182015b82811115611c11578251825591602001919060010190611bf6565b5b509050611c1f9190611ca3565b5090565b828054600181600116156101000203166002900490600052602060002090601f016020900481019282601f10611c6457805160ff1916838001178555611c92565b82800160010185558215611c92579182015b82811115611c91578251825591602001919060010190611c76565b5b509050611c9f9190611ca3565b5090565b611cc591905b80821115611cc1576000816000905550600101611ca9565b5090565b9056fea265627a7a7231582007b219034315a4de339d00ec0797f32c453817e343e93b092203d0d0a49db9ac64736f6c63430005100032",
  "source": "pragma solidity >0.0.0;\n\ncontract Certificate {\n    \n    //  (school)\n    //  (profile)\n    //  (courses)  (educationStatus) \n    //  courses \n    //  educationStatus \n    // \n    // https://ithelp.ithome.com.tw/articles/10222379\n    \n    address internal school; // \n    \n    Profile public profile; // \n    \n    Course[] internal courses; // \n    \n    EducationStatus public educationStatus; // \n    \n    // \n    constructor(string memory name, address account, string memory schoolName, string memory major, string memory minor, uint8 enrollYear) public {\n        school = msg.sender;\n        educationStatus = EducationStatus.learning;\n        profile = Profile({\n            name: name,\n            account: account,\n            schoolName: schoolName,\n            major: major,\n            minor: minor,\n            enrollYear: enrollYear\n        });\n    }\n    \n    // \n    struct Profile {\n        string name; // \n        address account; // \n        string schoolName; // \n        string major; // \n        string minor; //\n        uint8 enrollYear; // \n    }\n    \n    // \n    struct Course {\n        string name; // \n        string content; // \n        string comment; // \n        uint8 grade; // \n    }\n    \n    // \n    enum EducationStatus {\n        undergraduate, // \n        learning, // \n        graduate // \n    }\n    \n    // \n    modifier checkSchool {\n        require(msg.sender == school, \"Not school!\");\n        _;\n    }\n    \n    // \n    modifier checkStudent {\n        require(msg.sender == profile.account, \"Not student!\");\n        _;\n    }\n    \n    // \n    modifier checkEducationStatus {\n        require(educationStatus == EducationStatus.learning, \"Not student!\");\n        _;\n    }\n    \n    \n    //  Index \n    modifier IndexValidator(uint index, uint max) {\n        require(index < max, \"Out of range.\");\n        _;\n    }\n    \n    // \n    event done(DoneCode eventCode, string message);\n\n    enum DoneCode {\n        setCourse, // \n        setCertificate, // \n        setSchool, // \n        setMajor, // \n        setMinor, // \n        setName, // \n        setEnrollYear, //\n        setEducationStatus //\n    }\n    \n    // \n    function getCourseCount() public view returns(uint) {\n        return courses.length;\n    }\n    \n    // \n    function getCourse(uint index) public view IndexValidator(index, getCourseCount())\n        returns(string memory, string memory, string memory, uint8) {\n        Course memory course = courses[index];\n        return(course.name, course.content, course.comment, course.grade);\n    }\n    \n    // \n    function setCourse(string memory name, string memory content, string memory comment, uint8 grade) public checkSchool {\n        courses.push(Course({ name: name, content: content, comment: comment, grade: grade }));\n        emit done(DoneCode.setCourse, \"Set Course\");\n    }\n    \n    \n    //  (modifier)\n    modifier checkFinish() {\n        require(courses.length > 2, \"Not yet finish\");\n        _;\n    }\n\n    //  (function) ()\n    function checkFinishCertificate() public returns(bool){\n        if(courses.length > 2){\n            return true;\n        } else {\n            return false;\n        }\n    }\n\n    // \n    function getEducationStatus() public view returns(string memory) {\n        if(educationStatus == EducationStatus.undergraduate){\n            return \"undergraduate\";\n        } else if(educationStatus == EducationStatus.learning){\n            return \"learing\";\n        } else {\n            return \"graduate\";\n        }\n    }\n\n    // \n    function setCertificate() public checkFinish{\n        educationStatus = EducationStatus.graduate;\n        emit done(DoneCode.setCertificate, \"Set Certificate\");\n    }\n    \n    // \n    function setSchool(string memory newSchool) public checkSchool {\n        profile.schoolName = newSchool;\n        emit done(DoneCode.setSchool, \"Set School\");\n    }\n    \n    // \n    function setMajor(string memory newMajor) public checkSchool {\n        profile.major = newMajor;\n        emit done(DoneCode.setMajor, \"Set Major\");\n    }\n    \n    // \n     function setMinor(string memory newMinor) public checkSchool {\n        profile.minor = newMinor;\n        emit done(DoneCode.setMinor, \"Set Minor\");\n    }\n    \n    // \n    function setName(string memory newName) public checkSchool {\n        profile.name = newName;\n        emit done(DoneCode.setName, \"Set Name\");\n    }\n        \n    // \n    function setEducationStatus(EducationStatus newEducationStatus) public checkSchool {\n        educationStatus = newEducationStatus;\n        emit done(DoneCode.setEducationStatus, \"Set EducationStatus\");\n    }\n    \n}\n",
  "sourcePath": "/Users/john/Desktop/Block-Chain-Final/contracts/Certificate.sol",
  "compiler": {
    "name": "solc",
    "version": "0.5.16+commit.9c3226ce.Emscripten.clang"
  },
  "schemaVersion": "3.4.1",
  "updatedAt": "2021-06-20T12:53:15.704Z",
  "devdoc": {
    "methods": {}
  },
  "userdoc": {
    "methods": {}
  }
}